{
	"contracts/SimpleDIDTrust.sol": {
		"SimpleDIDTrust": {
			"abi": [
				{
					"inputs": [],
					"stateMutability": "nonpayable",
					"type": "constructor"
				},
				{
					"anonymous": false,
					"inputs": [
						{
							"indexed": true,
							"internalType": "string",
							"name": "did",
							"type": "string"
						},
						{
							"indexed": false,
							"internalType": "uint8",
							"name": "trustLevel",
							"type": "uint8"
						}
					],
					"name": "DIDRegistered",
					"type": "event"
				},
				{
					"inputs": [
						{
							"internalType": "string",
							"name": "did",
							"type": "string"
						}
					],
					"name": "checkTrust",
					"outputs": [
						{
							"internalType": "uint8",
							"name": "",
							"type": "uint8"
						}
					],
					"stateMutability": "view",
					"type": "function"
				},
				{
					"inputs": [],
					"name": "owner",
					"outputs": [
						{
							"internalType": "address",
							"name": "",
							"type": "address"
						}
					],
					"stateMutability": "view",
					"type": "function"
				},
				{
					"inputs": [
						{
							"internalType": "string",
							"name": "did",
							"type": "string"
						},
						{
							"internalType": "uint8",
							"name": "initialTrust",
							"type": "uint8"
						}
					],
					"name": "registerDID",
					"outputs": [],
					"stateMutability": "nonpayable",
					"type": "function"
				},
				{
					"inputs": [
						{
							"internalType": "string",
							"name": "did",
							"type": "string"
						},
						{
							"internalType": "uint8",
							"name": "newTrust",
							"type": "uint8"
						}
					],
					"name": "setTrustValue",
					"outputs": [],
					"stateMutability": "nonpayable",
					"type": "function"
				}
			],
			"devdoc": {
				"kind": "dev",
				"methods": {
					"checkTrust(string)": {
						"details": "Check the trust status of a DID. Returns 1 if trusted, else 0."
					},
					"registerDID(string,uint8)": {
						"details": "Register a new DID with an initial trust (1 or 0)."
					},
					"setTrustValue(string,uint8)": {
						"details": "Update the trust value for an existing DID (1 or 0)."
					}
				},
				"version": 1
			},
			"evm": {
				"assembly": "    /* \"contracts/SimpleDIDTrust.sol\":58:1968  contract SimpleDIDTrust {... */\n  mstore(0x40, 0x80)\n    /* \"contracts/SimpleDIDTrust.sol\":596:645  constructor() {... */\n  callvalue\n  dup1\n  iszero\n  tag_1\n  jumpi\n  0x00\n  dup1\n  revert\ntag_1:\n  pop\n    /* \"contracts/SimpleDIDTrust.sol\":628:638  msg.sender */\n  caller\n    /* \"contracts/SimpleDIDTrust.sol\":620:625  owner */\n  0x01\n  0x00\n    /* \"contracts/SimpleDIDTrust.sol\":620:638  owner = msg.sender */\n  0x0100\n  exp\n  dup2\n  sload\n  dup2\n  0xffffffffffffffffffffffffffffffffffffffff\n  mul\n  not\n  and\n  swap1\n  dup4\n  0xffffffffffffffffffffffffffffffffffffffff\n  and\n  mul\n  or\n  swap1\n  sstore\n  pop\n    /* \"contracts/SimpleDIDTrust.sol\":58:1968  contract SimpleDIDTrust {... */\n  dataSize(sub_0)\n  dup1\n  dataOffset(sub_0)\n  0x00\n  codecopy\n  0x00\n  return\nstop\n\nsub_0: assembly {\n        /* \"contracts/SimpleDIDTrust.sol\":58:1968  contract SimpleDIDTrust {... */\n      mstore(0x40, 0x80)\n      callvalue\n      dup1\n      iszero\n      tag_1\n      jumpi\n      0x00\n      dup1\n      revert\n    tag_1:\n      pop\n      jumpi(tag_2, lt(calldatasize, 0x04))\n      shr(0xe0, calldataload(0x00))\n      dup1\n      0x391fbf0c\n      eq\n      tag_3\n      jumpi\n      dup1\n      0x8da5cb5b\n      eq\n      tag_4\n      jumpi\n      dup1\n      0x922525ae\n      eq\n      tag_5\n      jumpi\n      dup1\n      0xe33dbd35\n      eq\n      tag_6\n      jumpi\n    tag_2:\n      0x00\n      dup1\n      revert\n        /* \"contracts/SimpleDIDTrust.sol\":829:1234  function registerDID(string memory did, uint8 initialTrust) external onlyOwner {... */\n    tag_3:\n      tag_7\n      0x04\n      dup1\n      calldatasize\n      sub\n      dup2\n      add\n      swap1\n      tag_8\n      swap2\n      swap1\n      tag_9\n      jump\t// in\n    tag_8:\n      tag_10\n      jump\t// in\n    tag_7:\n      stop\n        /* \"contracts/SimpleDIDTrust.sol\":451:471  address public owner */\n    tag_4:\n      tag_11\n      tag_12\n      jump\t// in\n    tag_11:\n      mload(0x40)\n      tag_13\n      swap2\n      swap1\n      tag_14\n      jump\t// in\n    tag_13:\n      mload(0x40)\n      dup1\n      swap2\n      sub\n      swap1\n      return\n        /* \"contracts/SimpleDIDTrust.sol\":1321:1642  function setTrustValue(string memory did, uint8 newTrust) external onlyOwner {... */\n    tag_5:\n      tag_15\n      0x04\n      dup1\n      calldatasize\n      sub\n      dup2\n      add\n      swap1\n      tag_16\n      swap2\n      swap1\n      tag_9\n      jump\t// in\n    tag_16:\n      tag_17\n      jump\t// in\n    tag_15:\n      stop\n        /* \"contracts/SimpleDIDTrust.sol\":1739:1966  function checkTrust(string memory did) external view returns (uint8) {... */\n    tag_6:\n      tag_18\n      0x04\n      dup1\n      calldatasize\n      sub\n      dup2\n      add\n      swap1\n      tag_19\n      swap2\n      swap1\n      tag_20\n      jump\t// in\n    tag_19:\n      tag_21\n      jump\t// in\n    tag_18:\n      mload(0x40)\n      tag_22\n      swap2\n      swap1\n      tag_23\n      jump\t// in\n    tag_22:\n      mload(0x40)\n      dup1\n      swap2\n      sub\n      swap1\n      return\n        /* \"contracts/SimpleDIDTrust.sol\":829:1234  function registerDID(string memory did, uint8 initialTrust) external onlyOwner {... */\n    tag_10:\n        /* \"contracts/SimpleDIDTrust.sol\":702:707  owner */\n      0x01\n      0x00\n      swap1\n      sload\n      swap1\n      0x0100\n      exp\n      swap1\n      div\n      0xffffffffffffffffffffffffffffffffffffffff\n      and\n        /* \"contracts/SimpleDIDTrust.sol\":688:707  msg.sender == owner */\n      0xffffffffffffffffffffffffffffffffffffffff\n      and\n        /* \"contracts/SimpleDIDTrust.sol\":688:698  msg.sender */\n      caller\n        /* \"contracts/SimpleDIDTrust.sol\":688:707  msg.sender == owner */\n      0xffffffffffffffffffffffffffffffffffffffff\n      and\n      eq\n        /* \"contracts/SimpleDIDTrust.sol\":680:726  require(msg.sender == owner, \"Not authorized\") */\n      tag_25\n      jumpi\n      mload(0x40)\n      0x08c379a000000000000000000000000000000000000000000000000000000000\n      dup2\n      mstore\n      0x04\n      add\n      tag_26\n      swap1\n      tag_27\n      jump\t// in\n    tag_26:\n      mload(0x40)\n      dup1\n      swap2\n      sub\n      swap1\n      revert\n    tag_25:\n        /* \"contracts/SimpleDIDTrust.sol\":942:943  0 */\n      0x00\n        /* \"contracts/SimpleDIDTrust.sol\":926:938  initialTrust */\n      dup2\n        /* \"contracts/SimpleDIDTrust.sol\":926:943  initialTrust == 0 */\n      0xff\n      and\n      eq\n        /* \"contracts/SimpleDIDTrust.sol\":926:964  initialTrust == 0 || initialTrust == 1 */\n      dup1\n      tag_29\n      jumpi\n      pop\n        /* \"contracts/SimpleDIDTrust.sol\":963:964  1 */\n      0x01\n        /* \"contracts/SimpleDIDTrust.sol\":947:959  initialTrust */\n      dup2\n        /* \"contracts/SimpleDIDTrust.sol\":947:964  initialTrust == 1 */\n      0xff\n      and\n      eq\n        /* \"contracts/SimpleDIDTrust.sol\":926:964  initialTrust == 0 || initialTrust == 1 */\n    tag_29:\n        /* \"contracts/SimpleDIDTrust.sol\":918:989  require(initialTrust == 0 || initialTrust == 1, \"Trust must be 0 or 1\") */\n      tag_30\n      jumpi\n      mload(0x40)\n      0x08c379a000000000000000000000000000000000000000000000000000000000\n      dup2\n      mstore\n      0x04\n      add\n      tag_31\n      swap1\n      tag_32\n      jump\t// in\n    tag_31:\n      mload(0x40)\n      dup1\n      swap2\n      sub\n      swap1\n      revert\n    tag_30:\n        /* \"contracts/SimpleDIDTrust.sol\":1008:1019  didRegistry */\n      0x00\n        /* \"contracts/SimpleDIDTrust.sol\":1020:1023  did */\n      dup3\n        /* \"contracts/SimpleDIDTrust.sol\":1008:1024  didRegistry[did] */\n      mload(0x40)\n      tag_33\n      swap2\n      swap1\n      tag_34\n      jump\t// in\n    tag_33:\n      swap1\n      dup2\n      mstore\n      0x20\n      add\n      mload(0x40)\n      dup1\n      swap2\n      sub\n      swap1\n      keccak256\n        /* \"contracts/SimpleDIDTrust.sol\":1008:1035  didRegistry[did].registered */\n      0x00\n      add\n      0x00\n      swap1\n      sload\n      swap1\n      0x0100\n      exp\n      swap1\n      div\n      0xff\n      and\n        /* \"contracts/SimpleDIDTrust.sol\":1007:1035  !didRegistry[did].registered */\n      iszero\n        /* \"contracts/SimpleDIDTrust.sol\":999:1062  require(!didRegistry[did].registered, \"DID already registered\") */\n      tag_35\n      jumpi\n      mload(0x40)\n      0x08c379a000000000000000000000000000000000000000000000000000000000\n      dup2\n      mstore\n      0x04\n      add\n      tag_36\n      swap1\n      tag_37\n      jump\t// in\n    tag_36:\n      mload(0x40)\n      dup1\n      swap2\n      sub\n      swap1\n      revert\n    tag_35:\n        /* \"contracts/SimpleDIDTrust.sol\":1092:1179  DIDInfo({... */\n      mload(0x40)\n      dup1\n      0x40\n      add\n      0x40\n      mstore\n      dup1\n        /* \"contracts/SimpleDIDTrust.sol\":1126:1130  true */\n      0x01\n        /* \"contracts/SimpleDIDTrust.sol\":1092:1179  DIDInfo({... */\n      iszero\n      iszero\n      dup2\n      mstore\n      0x20\n      add\n        /* \"contracts/SimpleDIDTrust.sol\":1156:1168  initialTrust */\n      dup3\n        /* \"contracts/SimpleDIDTrust.sol\":1092:1179  DIDInfo({... */\n      0xff\n      and\n      dup2\n      mstore\n      pop\n        /* \"contracts/SimpleDIDTrust.sol\":1073:1084  didRegistry */\n      0x00\n        /* \"contracts/SimpleDIDTrust.sol\":1085:1088  did */\n      dup4\n        /* \"contracts/SimpleDIDTrust.sol\":1073:1089  didRegistry[did] */\n      mload(0x40)\n      tag_38\n      swap2\n      swap1\n      tag_34\n      jump\t// in\n    tag_38:\n      swap1\n      dup2\n      mstore\n      0x20\n      add\n      mload(0x40)\n      dup1\n      swap2\n      sub\n      swap1\n      keccak256\n        /* \"contracts/SimpleDIDTrust.sol\":1073:1179  didRegistry[did] = DIDInfo({... */\n      0x00\n      dup3\n      add\n      mload\n      dup2\n      0x00\n      add\n      exp(0x0100, 0x00)\n      dup2\n      sload\n      dup2\n      0xff\n      mul\n      not\n      and\n      swap1\n      dup4\n      iszero\n      iszero\n      mul\n      or\n      swap1\n      sstore\n      pop\n      0x20\n      dup3\n      add\n      mload\n      dup2\n      0x00\n      add\n      exp(0x0100, 0x01)\n      dup2\n      sload\n      dup2\n      0xff\n      mul\n      not\n      and\n      swap1\n      dup4\n      0xff\n      and\n      mul\n      or\n      swap1\n      sstore\n      pop\n      swap1\n      pop\n      pop\n        /* \"contracts/SimpleDIDTrust.sol\":1209:1212  did */\n      dup2\n        /* \"contracts/SimpleDIDTrust.sol\":1195:1227  DIDRegistered(did, initialTrust) */\n      mload(0x40)\n      tag_39\n      swap2\n      swap1\n      tag_34\n      jump\t// in\n    tag_39:\n      mload(0x40)\n      dup1\n      swap2\n      sub\n      swap1\n      keccak256\n      0xcb0d880eb5e0b16307591ca2499d8a90f2aca862fa4e56a0621de1585aa2fbfd\n        /* \"contracts/SimpleDIDTrust.sol\":1214:1226  initialTrust */\n      dup3\n        /* \"contracts/SimpleDIDTrust.sol\":1195:1227  DIDRegistered(did, initialTrust) */\n      mload(0x40)\n      tag_40\n      swap2\n      swap1\n      tag_23\n      jump\t// in\n    tag_40:\n      mload(0x40)\n      dup1\n      swap2\n      sub\n      swap1\n      log2\n        /* \"contracts/SimpleDIDTrust.sol\":829:1234  function registerDID(string memory did, uint8 initialTrust) external onlyOwner {... */\n      pop\n      pop\n      jump\t// out\n        /* \"contracts/SimpleDIDTrust.sol\":451:471  address public owner */\n    tag_12:\n      0x01\n      0x00\n      swap1\n      sload\n      swap1\n      0x0100\n      exp\n      swap1\n      div\n      0xffffffffffffffffffffffffffffffffffffffff\n      and\n      dup2\n      jump\t// out\n        /* \"contracts/SimpleDIDTrust.sol\":1321:1642  function setTrustValue(string memory did, uint8 newTrust) external onlyOwner {... */\n    tag_17:\n        /* \"contracts/SimpleDIDTrust.sol\":702:707  owner */\n      0x01\n      0x00\n      swap1\n      sload\n      swap1\n      0x0100\n      exp\n      swap1\n      div\n      0xffffffffffffffffffffffffffffffffffffffff\n      and\n        /* \"contracts/SimpleDIDTrust.sol\":688:707  msg.sender == owner */\n      0xffffffffffffffffffffffffffffffffffffffff\n      and\n        /* \"contracts/SimpleDIDTrust.sol\":688:698  msg.sender */\n      caller\n        /* \"contracts/SimpleDIDTrust.sol\":688:707  msg.sender == owner */\n      0xffffffffffffffffffffffffffffffffffffffff\n      and\n      eq\n        /* \"contracts/SimpleDIDTrust.sol\":680:726  require(msg.sender == owner, \"Not authorized\") */\n      tag_42\n      jumpi\n      mload(0x40)\n      0x08c379a000000000000000000000000000000000000000000000000000000000\n      dup2\n      mstore\n      0x04\n      add\n      tag_43\n      swap1\n      tag_27\n      jump\t// in\n    tag_43:\n      mload(0x40)\n      dup1\n      swap2\n      sub\n      swap1\n      revert\n    tag_42:\n        /* \"contracts/SimpleDIDTrust.sol\":1416:1427  didRegistry */\n      0x00\n        /* \"contracts/SimpleDIDTrust.sol\":1428:1431  did */\n      dup3\n        /* \"contracts/SimpleDIDTrust.sol\":1416:1432  didRegistry[did] */\n      mload(0x40)\n      tag_45\n      swap2\n      swap1\n      tag_34\n      jump\t// in\n    tag_45:\n      swap1\n      dup2\n      mstore\n      0x20\n      add\n      mload(0x40)\n      dup1\n      swap2\n      sub\n      swap1\n      keccak256\n        /* \"contracts/SimpleDIDTrust.sol\":1416:1443  didRegistry[did].registered */\n      0x00\n      add\n      0x00\n      swap1\n      sload\n      swap1\n      0x0100\n      exp\n      swap1\n      div\n      0xff\n      and\n        /* \"contracts/SimpleDIDTrust.sol\":1408:1470  require(didRegistry[did].registered, \"DID not registered yet\") */\n      tag_46\n      jumpi\n      mload(0x40)\n      0x08c379a000000000000000000000000000000000000000000000000000000000\n      dup2\n      mstore\n      0x04\n      add\n      tag_47\n      swap1\n      tag_48\n      jump\t// in\n    tag_47:\n      mload(0x40)\n      dup1\n      swap2\n      sub\n      swap1\n      revert\n    tag_46:\n        /* \"contracts/SimpleDIDTrust.sol\":1500:1501  0 */\n      0x00\n        /* \"contracts/SimpleDIDTrust.sol\":1488:1496  newTrust */\n      dup2\n        /* \"contracts/SimpleDIDTrust.sol\":1488:1501  newTrust == 0 */\n      0xff\n      and\n      eq\n        /* \"contracts/SimpleDIDTrust.sol\":1488:1518  newTrust == 0 || newTrust == 1 */\n      dup1\n      tag_49\n      jumpi\n      pop\n        /* \"contracts/SimpleDIDTrust.sol\":1517:1518  1 */\n      0x01\n        /* \"contracts/SimpleDIDTrust.sol\":1505:1513  newTrust */\n      dup2\n        /* \"contracts/SimpleDIDTrust.sol\":1505:1518  newTrust == 1 */\n      0xff\n      and\n      eq\n        /* \"contracts/SimpleDIDTrust.sol\":1488:1518  newTrust == 0 || newTrust == 1 */\n    tag_49:\n        /* \"contracts/SimpleDIDTrust.sol\":1480:1543  require(newTrust == 0 || newTrust == 1, \"Trust must be 0 or 1\") */\n      tag_50\n      jumpi\n      mload(0x40)\n      0x08c379a000000000000000000000000000000000000000000000000000000000\n      dup2\n      mstore\n      0x04\n      add\n      tag_51\n      swap1\n      tag_32\n      jump\t// in\n    tag_51:\n      mload(0x40)\n      dup1\n      swap2\n      sub\n      swap1\n      revert\n    tag_50:\n        /* \"contracts/SimpleDIDTrust.sol\":1584:1592  newTrust */\n      dup1\n        /* \"contracts/SimpleDIDTrust.sol\":1554:1565  didRegistry */\n      0x00\n        /* \"contracts/SimpleDIDTrust.sol\":1566:1569  did */\n      dup4\n        /* \"contracts/SimpleDIDTrust.sol\":1554:1570  didRegistry[did] */\n      mload(0x40)\n      tag_52\n      swap2\n      swap1\n      tag_34\n      jump\t// in\n    tag_52:\n      swap1\n      dup2\n      mstore\n      0x20\n      add\n      mload(0x40)\n      dup1\n      swap2\n      sub\n      swap1\n      keccak256\n        /* \"contracts/SimpleDIDTrust.sol\":1554:1581  didRegistry[did].trustLevel */\n      0x00\n      add\n      0x01\n        /* \"contracts/SimpleDIDTrust.sol\":1554:1592  didRegistry[did].trustLevel = newTrust */\n      0x0100\n      exp\n      dup2\n      sload\n      dup2\n      0xff\n      mul\n      not\n      and\n      swap1\n      dup4\n      0xff\n      and\n      mul\n      or\n      swap1\n      sstore\n      pop\n        /* \"contracts/SimpleDIDTrust.sol\":1621:1624  did */\n      dup2\n        /* \"contracts/SimpleDIDTrust.sol\":1607:1635  DIDRegistered(did, newTrust) */\n      mload(0x40)\n      tag_53\n      swap2\n      swap1\n      tag_34\n      jump\t// in\n    tag_53:\n      mload(0x40)\n      dup1\n      swap2\n      sub\n      swap1\n      keccak256\n      0xcb0d880eb5e0b16307591ca2499d8a90f2aca862fa4e56a0621de1585aa2fbfd\n        /* \"contracts/SimpleDIDTrust.sol\":1626:1634  newTrust */\n      dup3\n        /* \"contracts/SimpleDIDTrust.sol\":1607:1635  DIDRegistered(did, newTrust) */\n      mload(0x40)\n      tag_54\n      swap2\n      swap1\n      tag_23\n      jump\t// in\n    tag_54:\n      mload(0x40)\n      dup1\n      swap2\n      sub\n      swap1\n      log2\n        /* \"contracts/SimpleDIDTrust.sol\":1321:1642  function setTrustValue(string memory did, uint8 newTrust) external onlyOwner {... */\n      pop\n      pop\n      jump\t// out\n        /* \"contracts/SimpleDIDTrust.sol\":1739:1966  function checkTrust(string memory did) external view returns (uint8) {... */\n    tag_21:\n        /* \"contracts/SimpleDIDTrust.sol\":1801:1806  uint8 */\n      0x00\n        /* \"contracts/SimpleDIDTrust.sol\":1823:1834  didRegistry */\n      dup1\n        /* \"contracts/SimpleDIDTrust.sol\":1835:1838  did */\n      dup3\n        /* \"contracts/SimpleDIDTrust.sol\":1823:1839  didRegistry[did] */\n      mload(0x40)\n      tag_56\n      swap2\n      swap1\n      tag_34\n      jump\t// in\n    tag_56:\n      swap1\n      dup2\n      mstore\n      0x20\n      add\n      mload(0x40)\n      dup1\n      swap2\n      sub\n      swap1\n      keccak256\n        /* \"contracts/SimpleDIDTrust.sol\":1823:1850  didRegistry[did].registered */\n      0x00\n      add\n      0x00\n      swap1\n      sload\n      swap1\n      0x0100\n      exp\n      swap1\n      div\n      0xff\n      and\n        /* \"contracts/SimpleDIDTrust.sol\":1818:1916  if (!didRegistry[did].registered) {... */\n      tag_57\n      jumpi\n        /* \"contracts/SimpleDIDTrust.sol\":1873:1874  0 */\n      0x00\n        /* \"contracts/SimpleDIDTrust.sol\":1866:1874  return 0 */\n      swap1\n      pop\n      jump(tag_55)\n        /* \"contracts/SimpleDIDTrust.sol\":1818:1916  if (!didRegistry[did].registered) {... */\n    tag_57:\n        /* \"contracts/SimpleDIDTrust.sol\":1932:1943  didRegistry */\n      0x00\n        /* \"contracts/SimpleDIDTrust.sol\":1944:1947  did */\n      dup3\n        /* \"contracts/SimpleDIDTrust.sol\":1932:1948  didRegistry[did] */\n      mload(0x40)\n      tag_58\n      swap2\n      swap1\n      tag_34\n      jump\t// in\n    tag_58:\n      swap1\n      dup2\n      mstore\n      0x20\n      add\n      mload(0x40)\n      dup1\n      swap2\n      sub\n      swap1\n      keccak256\n        /* \"contracts/SimpleDIDTrust.sol\":1932:1959  didRegistry[did].trustLevel */\n      0x00\n      add\n      0x01\n      swap1\n      sload\n      swap1\n      0x0100\n      exp\n      swap1\n      div\n      0xff\n      and\n        /* \"contracts/SimpleDIDTrust.sol\":1925:1959  return didRegistry[did].trustLevel */\n      swap1\n      pop\n        /* \"contracts/SimpleDIDTrust.sol\":1739:1966  function checkTrust(string memory did) external view returns (uint8) {... */\n    tag_55:\n      swap2\n      swap1\n      pop\n      jump\t// out\n        /* \"#utility.yul\":7:82   */\n    tag_59:\n        /* \"#utility.yul\":40:46   */\n      0x00\n        /* \"#utility.yul\":73:75   */\n      0x40\n        /* \"#utility.yul\":67:76   */\n      mload\n        /* \"#utility.yul\":57:76   */\n      swap1\n      pop\n        /* \"#utility.yul\":7:82   */\n      swap1\n      jump\t// out\n        /* \"#utility.yul\":88:205   */\n    tag_60:\n        /* \"#utility.yul\":197:198   */\n      0x00\n        /* \"#utility.yul\":194:195   */\n      dup1\n        /* \"#utility.yul\":187:199   */\n      revert\n        /* \"#utility.yul\":211:328   */\n    tag_61:\n        /* \"#utility.yul\":320:321   */\n      0x00\n        /* \"#utility.yul\":317:318   */\n      dup1\n        /* \"#utility.yul\":310:322   */\n      revert\n        /* \"#utility.yul\":334:451   */\n    tag_62:\n        /* \"#utility.yul\":443:444   */\n      0x00\n        /* \"#utility.yul\":440:441   */\n      dup1\n        /* \"#utility.yul\":433:445   */\n      revert\n        /* \"#utility.yul\":457:574   */\n    tag_63:\n        /* \"#utility.yul\":566:567   */\n      0x00\n        /* \"#utility.yul\":563:564   */\n      dup1\n        /* \"#utility.yul\":556:568   */\n      revert\n        /* \"#utility.yul\":580:682   */\n    tag_64:\n        /* \"#utility.yul\":621:627   */\n      0x00\n        /* \"#utility.yul\":672:674   */\n      0x1f\n        /* \"#utility.yul\":668:675   */\n      not\n        /* \"#utility.yul\":663:665   */\n      0x1f\n        /* \"#utility.yul\":656:661   */\n      dup4\n        /* \"#utility.yul\":652:666   */\n      add\n        /* \"#utility.yul\":648:676   */\n      and\n        /* \"#utility.yul\":638:676   */\n      swap1\n      pop\n        /* \"#utility.yul\":580:682   */\n      swap2\n      swap1\n      pop\n      jump\t// out\n        /* \"#utility.yul\":688:868   */\n    tag_65:\n        /* \"#utility.yul\":736:813   */\n      0x4e487b7100000000000000000000000000000000000000000000000000000000\n        /* \"#utility.yul\":733:734   */\n      0x00\n        /* \"#utility.yul\":726:814   */\n      mstore\n        /* \"#utility.yul\":833:837   */\n      0x41\n        /* \"#utility.yul\":830:831   */\n      0x04\n        /* \"#utility.yul\":823:838   */\n      mstore\n        /* \"#utility.yul\":857:861   */\n      0x24\n        /* \"#utility.yul\":854:855   */\n      0x00\n        /* \"#utility.yul\":847:862   */\n      revert\n        /* \"#utility.yul\":874:1155   */\n    tag_66:\n        /* \"#utility.yul\":957:984   */\n      tag_101\n        /* \"#utility.yul\":979:983   */\n      dup3\n        /* \"#utility.yul\":957:984   */\n      tag_64\n      jump\t// in\n    tag_101:\n        /* \"#utility.yul\":949:955   */\n      dup2\n        /* \"#utility.yul\":945:985   */\n      add\n        /* \"#utility.yul\":1087:1093   */\n      dup2\n        /* \"#utility.yul\":1075:1085   */\n      dup2\n        /* \"#utility.yul\":1072:1094   */\n      lt\n        /* \"#utility.yul\":1051:1069   */\n      0xffffffffffffffff\n        /* \"#utility.yul\":1039:1049   */\n      dup3\n        /* \"#utility.yul\":1036:1070   */\n      gt\n        /* \"#utility.yul\":1033:1095   */\n      or\n        /* \"#utility.yul\":1030:1118   */\n      iszero\n      tag_102\n      jumpi\n        /* \"#utility.yul\":1098:1116   */\n      tag_103\n      tag_65\n      jump\t// in\n    tag_103:\n        /* \"#utility.yul\":1030:1118   */\n    tag_102:\n        /* \"#utility.yul\":1138:1148   */\n      dup1\n        /* \"#utility.yul\":1134:1136   */\n      0x40\n        /* \"#utility.yul\":1127:1149   */\n      mstore\n        /* \"#utility.yul\":917:1155   */\n      pop\n        /* \"#utility.yul\":874:1155   */\n      pop\n      pop\n      jump\t// out\n        /* \"#utility.yul\":1161:1290   */\n    tag_67:\n        /* \"#utility.yul\":1195:1201   */\n      0x00\n        /* \"#utility.yul\":1222:1242   */\n      tag_105\n      tag_59\n      jump\t// in\n    tag_105:\n        /* \"#utility.yul\":1212:1242   */\n      swap1\n      pop\n        /* \"#utility.yul\":1251:1284   */\n      tag_106\n        /* \"#utility.yul\":1279:1283   */\n      dup3\n        /* \"#utility.yul\":1271:1277   */\n      dup3\n        /* \"#utility.yul\":1251:1284   */\n      tag_66\n      jump\t// in\n    tag_106:\n        /* \"#utility.yul\":1161:1290   */\n      swap2\n      swap1\n      pop\n      jump\t// out\n        /* \"#utility.yul\":1296:1604   */\n    tag_68:\n        /* \"#utility.yul\":1358:1362   */\n      0x00\n        /* \"#utility.yul\":1448:1466   */\n      0xffffffffffffffff\n        /* \"#utility.yul\":1440:1446   */\n      dup3\n        /* \"#utility.yul\":1437:1467   */\n      gt\n        /* \"#utility.yul\":1434:1490   */\n      iszero\n      tag_108\n      jumpi\n        /* \"#utility.yul\":1470:1488   */\n      tag_109\n      tag_65\n      jump\t// in\n    tag_109:\n        /* \"#utility.yul\":1434:1490   */\n    tag_108:\n        /* \"#utility.yul\":1508:1537   */\n      tag_110\n        /* \"#utility.yul\":1530:1536   */\n      dup3\n        /* \"#utility.yul\":1508:1537   */\n      tag_64\n      jump\t// in\n    tag_110:\n        /* \"#utility.yul\":1500:1537   */\n      swap1\n      pop\n        /* \"#utility.yul\":1592:1596   */\n      0x20\n        /* \"#utility.yul\":1586:1590   */\n      dup2\n        /* \"#utility.yul\":1582:1597   */\n      add\n        /* \"#utility.yul\":1574:1597   */\n      swap1\n      pop\n        /* \"#utility.yul\":1296:1604   */\n      swap2\n      swap1\n      pop\n      jump\t// out\n        /* \"#utility.yul\":1610:1758   */\n    tag_69:\n        /* \"#utility.yul\":1708:1714   */\n      dup3\n        /* \"#utility.yul\":1703:1706   */\n      dup2\n        /* \"#utility.yul\":1698:1701   */\n      dup4\n        /* \"#utility.yul\":1685:1715   */\n      calldatacopy\n        /* \"#utility.yul\":1749:1750   */\n      0x00\n        /* \"#utility.yul\":1740:1746   */\n      dup4\n        /* \"#utility.yul\":1735:1738   */\n      dup4\n        /* \"#utility.yul\":1731:1747   */\n      add\n        /* \"#utility.yul\":1724:1751   */\n      mstore\n        /* \"#utility.yul\":1610:1758   */\n      pop\n      pop\n      pop\n      jump\t// out\n        /* \"#utility.yul\":1764:2189   */\n    tag_70:\n        /* \"#utility.yul\":1842:1847   */\n      0x00\n        /* \"#utility.yul\":1867:1933   */\n      tag_113\n        /* \"#utility.yul\":1883:1932   */\n      tag_114\n        /* \"#utility.yul\":1925:1931   */\n      dup5\n        /* \"#utility.yul\":1883:1932   */\n      tag_68\n      jump\t// in\n    tag_114:\n        /* \"#utility.yul\":1867:1933   */\n      tag_67\n      jump\t// in\n    tag_113:\n        /* \"#utility.yul\":1858:1933   */\n      swap1\n      pop\n        /* \"#utility.yul\":1956:1962   */\n      dup3\n        /* \"#utility.yul\":1949:1954   */\n      dup2\n        /* \"#utility.yul\":1942:1963   */\n      mstore\n        /* \"#utility.yul\":1994:1998   */\n      0x20\n        /* \"#utility.yul\":1987:1992   */\n      dup2\n        /* \"#utility.yul\":1983:1999   */\n      add\n        /* \"#utility.yul\":2032:2035   */\n      dup5\n        /* \"#utility.yul\":2023:2029   */\n      dup5\n        /* \"#utility.yul\":2018:2021   */\n      dup5\n        /* \"#utility.yul\":2014:2030   */\n      add\n        /* \"#utility.yul\":2011:2036   */\n      gt\n        /* \"#utility.yul\":2008:2120   */\n      iszero\n      tag_115\n      jumpi\n        /* \"#utility.yul\":2039:2118   */\n      tag_116\n      tag_63\n      jump\t// in\n    tag_116:\n        /* \"#utility.yul\":2008:2120   */\n    tag_115:\n        /* \"#utility.yul\":2129:2183   */\n      tag_117\n        /* \"#utility.yul\":2176:2182   */\n      dup5\n        /* \"#utility.yul\":2171:2174   */\n      dup3\n        /* \"#utility.yul\":2166:2169   */\n      dup6\n        /* \"#utility.yul\":2129:2183   */\n      tag_69\n      jump\t// in\n    tag_117:\n        /* \"#utility.yul\":1848:2189   */\n      pop\n        /* \"#utility.yul\":1764:2189   */\n      swap4\n      swap3\n      pop\n      pop\n      pop\n      jump\t// out\n        /* \"#utility.yul\":2209:2549   */\n    tag_71:\n        /* \"#utility.yul\":2265:2270   */\n      0x00\n        /* \"#utility.yul\":2314:2317   */\n      dup3\n        /* \"#utility.yul\":2307:2311   */\n      0x1f\n        /* \"#utility.yul\":2299:2305   */\n      dup4\n        /* \"#utility.yul\":2295:2312   */\n      add\n        /* \"#utility.yul\":2291:2318   */\n      slt\n        /* \"#utility.yul\":2281:2403   */\n      tag_119\n      jumpi\n        /* \"#utility.yul\":2322:2401   */\n      tag_120\n      tag_62\n      jump\t// in\n    tag_120:\n        /* \"#utility.yul\":2281:2403   */\n    tag_119:\n        /* \"#utility.yul\":2439:2445   */\n      dup2\n        /* \"#utility.yul\":2426:2446   */\n      calldataload\n        /* \"#utility.yul\":2464:2543   */\n      tag_121\n        /* \"#utility.yul\":2539:2542   */\n      dup5\n        /* \"#utility.yul\":2531:2537   */\n      dup3\n        /* \"#utility.yul\":2524:2528   */\n      0x20\n        /* \"#utility.yul\":2516:2522   */\n      dup7\n        /* \"#utility.yul\":2512:2529   */\n      add\n        /* \"#utility.yul\":2464:2543   */\n      tag_70\n      jump\t// in\n    tag_121:\n        /* \"#utility.yul\":2455:2543   */\n      swap2\n      pop\n        /* \"#utility.yul\":2271:2549   */\n      pop\n        /* \"#utility.yul\":2209:2549   */\n      swap3\n      swap2\n      pop\n      pop\n      jump\t// out\n        /* \"#utility.yul\":2555:2641   */\n    tag_72:\n        /* \"#utility.yul\":2590:2597   */\n      0x00\n        /* \"#utility.yul\":2630:2634   */\n      0xff\n        /* \"#utility.yul\":2623:2628   */\n      dup3\n        /* \"#utility.yul\":2619:2635   */\n      and\n        /* \"#utility.yul\":2608:2635   */\n      swap1\n      pop\n        /* \"#utility.yul\":2555:2641   */\n      swap2\n      swap1\n      pop\n      jump\t// out\n        /* \"#utility.yul\":2647:2765   */\n    tag_73:\n        /* \"#utility.yul\":2718:2740   */\n      tag_124\n        /* \"#utility.yul\":2734:2739   */\n      dup2\n        /* \"#utility.yul\":2718:2740   */\n      tag_72\n      jump\t// in\n    tag_124:\n        /* \"#utility.yul\":2711:2716   */\n      dup2\n        /* \"#utility.yul\":2708:2741   */\n      eq\n        /* \"#utility.yul\":2698:2759   */\n      tag_125\n      jumpi\n        /* \"#utility.yul\":2755:2756   */\n      0x00\n        /* \"#utility.yul\":2752:2753   */\n      dup1\n        /* \"#utility.yul\":2745:2757   */\n      revert\n        /* \"#utility.yul\":2698:2759   */\n    tag_125:\n        /* \"#utility.yul\":2647:2765   */\n      pop\n      jump\t// out\n        /* \"#utility.yul\":2771:2906   */\n    tag_74:\n        /* \"#utility.yul\":2815:2820   */\n      0x00\n        /* \"#utility.yul\":2853:2859   */\n      dup2\n        /* \"#utility.yul\":2840:2860   */\n      calldataload\n        /* \"#utility.yul\":2831:2860   */\n      swap1\n      pop\n        /* \"#utility.yul\":2869:2900   */\n      tag_127\n        /* \"#utility.yul\":2894:2899   */\n      dup2\n        /* \"#utility.yul\":2869:2900   */\n      tag_73\n      jump\t// in\n    tag_127:\n        /* \"#utility.yul\":2771:2906   */\n      swap3\n      swap2\n      pop\n      pop\n      jump\t// out\n        /* \"#utility.yul\":2912:3562   */\n    tag_9:\n        /* \"#utility.yul\":2988:2994   */\n      0x00\n        /* \"#utility.yul\":2996:3002   */\n      dup1\n        /* \"#utility.yul\":3045:3047   */\n      0x40\n        /* \"#utility.yul\":3033:3042   */\n      dup4\n        /* \"#utility.yul\":3024:3031   */\n      dup6\n        /* \"#utility.yul\":3020:3043   */\n      sub\n        /* \"#utility.yul\":3016:3048   */\n      slt\n        /* \"#utility.yul\":3013:3132   */\n      iszero\n      tag_129\n      jumpi\n        /* \"#utility.yul\":3051:3130   */\n      tag_130\n      tag_60\n      jump\t// in\n    tag_130:\n        /* \"#utility.yul\":3013:3132   */\n    tag_129:\n        /* \"#utility.yul\":3199:3200   */\n      0x00\n        /* \"#utility.yul\":3188:3197   */\n      dup4\n        /* \"#utility.yul\":3184:3201   */\n      add\n        /* \"#utility.yul\":3171:3202   */\n      calldataload\n        /* \"#utility.yul\":3229:3247   */\n      0xffffffffffffffff\n        /* \"#utility.yul\":3221:3227   */\n      dup2\n        /* \"#utility.yul\":3218:3248   */\n      gt\n        /* \"#utility.yul\":3215:3332   */\n      iszero\n      tag_131\n      jumpi\n        /* \"#utility.yul\":3251:3330   */\n      tag_132\n      tag_61\n      jump\t// in\n    tag_132:\n        /* \"#utility.yul\":3215:3332   */\n    tag_131:\n        /* \"#utility.yul\":3356:3419   */\n      tag_133\n        /* \"#utility.yul\":3411:3418   */\n      dup6\n        /* \"#utility.yul\":3402:3408   */\n      dup3\n        /* \"#utility.yul\":3391:3400   */\n      dup7\n        /* \"#utility.yul\":3387:3409   */\n      add\n        /* \"#utility.yul\":3356:3419   */\n      tag_71\n      jump\t// in\n    tag_133:\n        /* \"#utility.yul\":3346:3419   */\n      swap3\n      pop\n        /* \"#utility.yul\":3142:3429   */\n      pop\n        /* \"#utility.yul\":3468:3470   */\n      0x20\n        /* \"#utility.yul\":3494:3545   */\n      tag_134\n        /* \"#utility.yul\":3537:3544   */\n      dup6\n        /* \"#utility.yul\":3528:3534   */\n      dup3\n        /* \"#utility.yul\":3517:3526   */\n      dup7\n        /* \"#utility.yul\":3513:3535   */\n      add\n        /* \"#utility.yul\":3494:3545   */\n      tag_74\n      jump\t// in\n    tag_134:\n        /* \"#utility.yul\":3484:3545   */\n      swap2\n      pop\n        /* \"#utility.yul\":3439:3555   */\n      pop\n        /* \"#utility.yul\":2912:3562   */\n      swap3\n      pop\n      swap3\n      swap1\n      pop\n      jump\t// out\n        /* \"#utility.yul\":3568:3694   */\n    tag_75:\n        /* \"#utility.yul\":3605:3612   */\n      0x00\n        /* \"#utility.yul\":3645:3687   */\n      0xffffffffffffffffffffffffffffffffffffffff\n        /* \"#utility.yul\":3638:3643   */\n      dup3\n        /* \"#utility.yul\":3634:3688   */\n      and\n        /* \"#utility.yul\":3623:3688   */\n      swap1\n      pop\n        /* \"#utility.yul\":3568:3694   */\n      swap2\n      swap1\n      pop\n      jump\t// out\n        /* \"#utility.yul\":3700:3796   */\n    tag_76:\n        /* \"#utility.yul\":3737:3744   */\n      0x00\n        /* \"#utility.yul\":3766:3790   */\n      tag_137\n        /* \"#utility.yul\":3784:3789   */\n      dup3\n        /* \"#utility.yul\":3766:3790   */\n      tag_75\n      jump\t// in\n    tag_137:\n        /* \"#utility.yul\":3755:3790   */\n      swap1\n      pop\n        /* \"#utility.yul\":3700:3796   */\n      swap2\n      swap1\n      pop\n      jump\t// out\n        /* \"#utility.yul\":3802:3920   */\n    tag_77:\n        /* \"#utility.yul\":3889:3913   */\n      tag_139\n        /* \"#utility.yul\":3907:3912   */\n      dup2\n        /* \"#utility.yul\":3889:3913   */\n      tag_76\n      jump\t// in\n    tag_139:\n        /* \"#utility.yul\":3884:3887   */\n      dup3\n        /* \"#utility.yul\":3877:3914   */\n      mstore\n        /* \"#utility.yul\":3802:3920   */\n      pop\n      pop\n      jump\t// out\n        /* \"#utility.yul\":3926:4148   */\n    tag_14:\n        /* \"#utility.yul\":4019:4023   */\n      0x00\n        /* \"#utility.yul\":4057:4059   */\n      0x20\n        /* \"#utility.yul\":4046:4055   */\n      dup3\n        /* \"#utility.yul\":4042:4060   */\n      add\n        /* \"#utility.yul\":4034:4060   */\n      swap1\n      pop\n        /* \"#utility.yul\":4070:4141   */\n      tag_141\n        /* \"#utility.yul\":4138:4139   */\n      0x00\n        /* \"#utility.yul\":4127:4136   */\n      dup4\n        /* \"#utility.yul\":4123:4140   */\n      add\n        /* \"#utility.yul\":4114:4120   */\n      dup5\n        /* \"#utility.yul\":4070:4141   */\n      tag_77\n      jump\t// in\n    tag_141:\n        /* \"#utility.yul\":3926:4148   */\n      swap3\n      swap2\n      pop\n      pop\n      jump\t// out\n        /* \"#utility.yul\":4154:4663   */\n    tag_20:\n        /* \"#utility.yul\":4223:4229   */\n      0x00\n        /* \"#utility.yul\":4272:4274   */\n      0x20\n        /* \"#utility.yul\":4260:4269   */\n      dup3\n        /* \"#utility.yul\":4251:4258   */\n      dup5\n        /* \"#utility.yul\":4247:4270   */\n      sub\n        /* \"#utility.yul\":4243:4275   */\n      slt\n        /* \"#utility.yul\":4240:4359   */\n      iszero\n      tag_143\n      jumpi\n        /* \"#utility.yul\":4278:4357   */\n      tag_144\n      tag_60\n      jump\t// in\n    tag_144:\n        /* \"#utility.yul\":4240:4359   */\n    tag_143:\n        /* \"#utility.yul\":4426:4427   */\n      0x00\n        /* \"#utility.yul\":4415:4424   */\n      dup3\n        /* \"#utility.yul\":4411:4428   */\n      add\n        /* \"#utility.yul\":4398:4429   */\n      calldataload\n        /* \"#utility.yul\":4456:4474   */\n      0xffffffffffffffff\n        /* \"#utility.yul\":4448:4454   */\n      dup2\n        /* \"#utility.yul\":4445:4475   */\n      gt\n        /* \"#utility.yul\":4442:4559   */\n      iszero\n      tag_145\n      jumpi\n        /* \"#utility.yul\":4478:4557   */\n      tag_146\n      tag_61\n      jump\t// in\n    tag_146:\n        /* \"#utility.yul\":4442:4559   */\n    tag_145:\n        /* \"#utility.yul\":4583:4646   */\n      tag_147\n        /* \"#utility.yul\":4638:4645   */\n      dup5\n        /* \"#utility.yul\":4629:4635   */\n      dup3\n        /* \"#utility.yul\":4618:4627   */\n      dup6\n        /* \"#utility.yul\":4614:4636   */\n      add\n        /* \"#utility.yul\":4583:4646   */\n      tag_71\n      jump\t// in\n    tag_147:\n        /* \"#utility.yul\":4573:4646   */\n      swap2\n      pop\n        /* \"#utility.yul\":4369:4656   */\n      pop\n        /* \"#utility.yul\":4154:4663   */\n      swap3\n      swap2\n      pop\n      pop\n      jump\t// out\n        /* \"#utility.yul\":4669:4781   */\n    tag_78:\n        /* \"#utility.yul\":4752:4774   */\n      tag_149\n        /* \"#utility.yul\":4768:4773   */\n      dup2\n        /* \"#utility.yul\":4752:4774   */\n      tag_72\n      jump\t// in\n    tag_149:\n        /* \"#utility.yul\":4747:4750   */\n      dup3\n        /* \"#utility.yul\":4740:4775   */\n      mstore\n        /* \"#utility.yul\":4669:4781   */\n      pop\n      pop\n      jump\t// out\n        /* \"#utility.yul\":4787:5001   */\n    tag_23:\n        /* \"#utility.yul\":4876:4880   */\n      0x00\n        /* \"#utility.yul\":4914:4916   */\n      0x20\n        /* \"#utility.yul\":4903:4912   */\n      dup3\n        /* \"#utility.yul\":4899:4917   */\n      add\n        /* \"#utility.yul\":4891:4917   */\n      swap1\n      pop\n        /* \"#utility.yul\":4927:4994   */\n      tag_151\n        /* \"#utility.yul\":4991:4992   */\n      0x00\n        /* \"#utility.yul\":4980:4989   */\n      dup4\n        /* \"#utility.yul\":4976:4993   */\n      add\n        /* \"#utility.yul\":4967:4973   */\n      dup5\n        /* \"#utility.yul\":4927:4994   */\n      tag_78\n      jump\t// in\n    tag_151:\n        /* \"#utility.yul\":4787:5001   */\n      swap3\n      swap2\n      pop\n      pop\n      jump\t// out\n        /* \"#utility.yul\":5007:5176   */\n    tag_79:\n        /* \"#utility.yul\":5091:5102   */\n      0x00\n        /* \"#utility.yul\":5125:5131   */\n      dup3\n        /* \"#utility.yul\":5120:5123   */\n      dup3\n        /* \"#utility.yul\":5113:5132   */\n      mstore\n        /* \"#utility.yul\":5165:5169   */\n      0x20\n        /* \"#utility.yul\":5160:5163   */\n      dup3\n        /* \"#utility.yul\":5156:5170   */\n      add\n        /* \"#utility.yul\":5141:5170   */\n      swap1\n      pop\n        /* \"#utility.yul\":5007:5176   */\n      swap3\n      swap2\n      pop\n      pop\n      jump\t// out\n        /* \"#utility.yul\":5182:5346   */\n    tag_80:\n        /* \"#utility.yul\":5322:5338   */\n      0x4e6f7420617574686f72697a6564000000000000000000000000000000000000\n        /* \"#utility.yul\":5318:5319   */\n      0x00\n        /* \"#utility.yul\":5310:5316   */\n      dup3\n        /* \"#utility.yul\":5306:5320   */\n      add\n        /* \"#utility.yul\":5299:5339   */\n      mstore\n        /* \"#utility.yul\":5182:5346   */\n      pop\n      jump\t// out\n        /* \"#utility.yul\":5352:5718   */\n    tag_81:\n        /* \"#utility.yul\":5494:5497   */\n      0x00\n        /* \"#utility.yul\":5515:5582   */\n      tag_155\n        /* \"#utility.yul\":5579:5581   */\n      0x0e\n        /* \"#utility.yul\":5574:5577   */\n      dup4\n        /* \"#utility.yul\":5515:5582   */\n      tag_79\n      jump\t// in\n    tag_155:\n        /* \"#utility.yul\":5508:5582   */\n      swap2\n      pop\n        /* \"#utility.yul\":5591:5684   */\n      tag_156\n        /* \"#utility.yul\":5680:5683   */\n      dup3\n        /* \"#utility.yul\":5591:5684   */\n      tag_80\n      jump\t// in\n    tag_156:\n        /* \"#utility.yul\":5709:5711   */\n      0x20\n        /* \"#utility.yul\":5704:5707   */\n      dup3\n        /* \"#utility.yul\":5700:5712   */\n      add\n        /* \"#utility.yul\":5693:5712   */\n      swap1\n      pop\n        /* \"#utility.yul\":5352:5718   */\n      swap2\n      swap1\n      pop\n      jump\t// out\n        /* \"#utility.yul\":5724:6143   */\n    tag_27:\n        /* \"#utility.yul\":5890:5894   */\n      0x00\n        /* \"#utility.yul\":5928:5930   */\n      0x20\n        /* \"#utility.yul\":5917:5926   */\n      dup3\n        /* \"#utility.yul\":5913:5931   */\n      add\n        /* \"#utility.yul\":5905:5931   */\n      swap1\n      pop\n        /* \"#utility.yul\":5977:5986   */\n      dup2\n        /* \"#utility.yul\":5971:5975   */\n      dup2\n        /* \"#utility.yul\":5967:5987   */\n      sub\n        /* \"#utility.yul\":5963:5964   */\n      0x00\n        /* \"#utility.yul\":5952:5961   */\n      dup4\n        /* \"#utility.yul\":5948:5965   */\n      add\n        /* \"#utility.yul\":5941:5988   */\n      mstore\n        /* \"#utility.yul\":6005:6136   */\n      tag_158\n        /* \"#utility.yul\":6131:6135   */\n      dup2\n        /* \"#utility.yul\":6005:6136   */\n      tag_81\n      jump\t// in\n    tag_158:\n        /* \"#utility.yul\":5997:6136   */\n      swap1\n      pop\n        /* \"#utility.yul\":5724:6143   */\n      swap2\n      swap1\n      pop\n      jump\t// out\n        /* \"#utility.yul\":6149:6319   */\n    tag_82:\n        /* \"#utility.yul\":6289:6311   */\n      0x5472757374206d7573742062652030206f722031000000000000000000000000\n        /* \"#utility.yul\":6285:6286   */\n      0x00\n        /* \"#utility.yul\":6277:6283   */\n      dup3\n        /* \"#utility.yul\":6273:6287   */\n      add\n        /* \"#utility.yul\":6266:6312   */\n      mstore\n        /* \"#utility.yul\":6149:6319   */\n      pop\n      jump\t// out\n        /* \"#utility.yul\":6325:6691   */\n    tag_83:\n        /* \"#utility.yul\":6467:6470   */\n      0x00\n        /* \"#utility.yul\":6488:6555   */\n      tag_161\n        /* \"#utility.yul\":6552:6554   */\n      0x14\n        /* \"#utility.yul\":6547:6550   */\n      dup4\n        /* \"#utility.yul\":6488:6555   */\n      tag_79\n      jump\t// in\n    tag_161:\n        /* \"#utility.yul\":6481:6555   */\n      swap2\n      pop\n        /* \"#utility.yul\":6564:6657   */\n      tag_162\n        /* \"#utility.yul\":6653:6656   */\n      dup3\n        /* \"#utility.yul\":6564:6657   */\n      tag_82\n      jump\t// in\n    tag_162:\n        /* \"#utility.yul\":6682:6684   */\n      0x20\n        /* \"#utility.yul\":6677:6680   */\n      dup3\n        /* \"#utility.yul\":6673:6685   */\n      add\n        /* \"#utility.yul\":6666:6685   */\n      swap1\n      pop\n        /* \"#utility.yul\":6325:6691   */\n      swap2\n      swap1\n      pop\n      jump\t// out\n        /* \"#utility.yul\":6697:7116   */\n    tag_32:\n        /* \"#utility.yul\":6863:6867   */\n      0x00\n        /* \"#utility.yul\":6901:6903   */\n      0x20\n        /* \"#utility.yul\":6890:6899   */\n      dup3\n        /* \"#utility.yul\":6886:6904   */\n      add\n        /* \"#utility.yul\":6878:6904   */\n      swap1\n      pop\n        /* \"#utility.yul\":6950:6959   */\n      dup2\n        /* \"#utility.yul\":6944:6948   */\n      dup2\n        /* \"#utility.yul\":6940:6960   */\n      sub\n        /* \"#utility.yul\":6936:6937   */\n      0x00\n        /* \"#utility.yul\":6925:6934   */\n      dup4\n        /* \"#utility.yul\":6921:6938   */\n      add\n        /* \"#utility.yul\":6914:6961   */\n      mstore\n        /* \"#utility.yul\":6978:7109   */\n      tag_164\n        /* \"#utility.yul\":7104:7108   */\n      dup2\n        /* \"#utility.yul\":6978:7109   */\n      tag_83\n      jump\t// in\n    tag_164:\n        /* \"#utility.yul\":6970:7109   */\n      swap1\n      pop\n        /* \"#utility.yul\":6697:7116   */\n      swap2\n      swap1\n      pop\n      jump\t// out\n        /* \"#utility.yul\":7122:7221   */\n    tag_84:\n        /* \"#utility.yul\":7174:7180   */\n      0x00\n        /* \"#utility.yul\":7208:7213   */\n      dup2\n        /* \"#utility.yul\":7202:7214   */\n      mload\n        /* \"#utility.yul\":7192:7214   */\n      swap1\n      pop\n        /* \"#utility.yul\":7122:7221   */\n      swap2\n      swap1\n      pop\n      jump\t// out\n        /* \"#utility.yul\":7227:7375   */\n    tag_85:\n        /* \"#utility.yul\":7329:7340   */\n      0x00\n        /* \"#utility.yul\":7366:7369   */\n      dup2\n        /* \"#utility.yul\":7351:7369   */\n      swap1\n      pop\n        /* \"#utility.yul\":7227:7375   */\n      swap3\n      swap2\n      pop\n      pop\n      jump\t// out\n        /* \"#utility.yul\":7381:7520   */\n    tag_86:\n        /* \"#utility.yul\":7470:7476   */\n      dup3\n        /* \"#utility.yul\":7465:7468   */\n      dup2\n        /* \"#utility.yul\":7460:7463   */\n      dup4\n        /* \"#utility.yul\":7454:7477   */\n      mcopy\n        /* \"#utility.yul\":7511:7512   */\n      0x00\n        /* \"#utility.yul\":7502:7508   */\n      dup4\n        /* \"#utility.yul\":7497:7500   */\n      dup4\n        /* \"#utility.yul\":7493:7509   */\n      add\n        /* \"#utility.yul\":7486:7513   */\n      mstore\n        /* \"#utility.yul\":7381:7520   */\n      pop\n      pop\n      pop\n      jump\t// out\n        /* \"#utility.yul\":7526:7916   */\n    tag_87:\n        /* \"#utility.yul\":7632:7635   */\n      0x00\n        /* \"#utility.yul\":7660:7699   */\n      tag_169\n        /* \"#utility.yul\":7693:7698   */\n      dup3\n        /* \"#utility.yul\":7660:7699   */\n      tag_84\n      jump\t// in\n    tag_169:\n        /* \"#utility.yul\":7715:7804   */\n      tag_170\n        /* \"#utility.yul\":7797:7803   */\n      dup2\n        /* \"#utility.yul\":7792:7795   */\n      dup6\n        /* \"#utility.yul\":7715:7804   */\n      tag_85\n      jump\t// in\n    tag_170:\n        /* \"#utility.yul\":7708:7804   */\n      swap4\n      pop\n        /* \"#utility.yul\":7813:7878   */\n      tag_171\n        /* \"#utility.yul\":7871:7877   */\n      dup2\n        /* \"#utility.yul\":7866:7869   */\n      dup6\n        /* \"#utility.yul\":7859:7863   */\n      0x20\n        /* \"#utility.yul\":7852:7857   */\n      dup7\n        /* \"#utility.yul\":7848:7864   */\n      add\n        /* \"#utility.yul\":7813:7878   */\n      tag_86\n      jump\t// in\n    tag_171:\n        /* \"#utility.yul\":7903:7909   */\n      dup1\n        /* \"#utility.yul\":7898:7901   */\n      dup5\n        /* \"#utility.yul\":7894:7910   */\n      add\n        /* \"#utility.yul\":7887:7910   */\n      swap2\n      pop\n        /* \"#utility.yul\":7636:7916   */\n      pop\n        /* \"#utility.yul\":7526:7916   */\n      swap3\n      swap2\n      pop\n      pop\n      jump\t// out\n        /* \"#utility.yul\":7922:8197   */\n    tag_34:\n        /* \"#utility.yul\":8054:8057   */\n      0x00\n        /* \"#utility.yul\":8076:8171   */\n      tag_173\n        /* \"#utility.yul\":8167:8170   */\n      dup3\n        /* \"#utility.yul\":8158:8164   */\n      dup5\n        /* \"#utility.yul\":8076:8171   */\n      tag_87\n      jump\t// in\n    tag_173:\n        /* \"#utility.yul\":8069:8171   */\n      swap2\n      pop\n        /* \"#utility.yul\":8188:8191   */\n      dup2\n        /* \"#utility.yul\":8181:8191   */\n      swap1\n      pop\n        /* \"#utility.yul\":7922:8197   */\n      swap3\n      swap2\n      pop\n      pop\n      jump\t// out\n        /* \"#utility.yul\":8203:8375   */\n    tag_88:\n        /* \"#utility.yul\":8343:8367   */\n      0x44494420616c7265616479207265676973746572656400000000000000000000\n        /* \"#utility.yul\":8339:8340   */\n      0x00\n        /* \"#utility.yul\":8331:8337   */\n      dup3\n        /* \"#utility.yul\":8327:8341   */\n      add\n        /* \"#utility.yul\":8320:8368   */\n      mstore\n        /* \"#utility.yul\":8203:8375   */\n      pop\n      jump\t// out\n        /* \"#utility.yul\":8381:8747   */\n    tag_89:\n        /* \"#utility.yul\":8523:8526   */\n      0x00\n        /* \"#utility.yul\":8544:8611   */\n      tag_176\n        /* \"#utility.yul\":8608:8610   */\n      0x16\n        /* \"#utility.yul\":8603:8606   */\n      dup4\n        /* \"#utility.yul\":8544:8611   */\n      tag_79\n      jump\t// in\n    tag_176:\n        /* \"#utility.yul\":8537:8611   */\n      swap2\n      pop\n        /* \"#utility.yul\":8620:8713   */\n      tag_177\n        /* \"#utility.yul\":8709:8712   */\n      dup3\n        /* \"#utility.yul\":8620:8713   */\n      tag_88\n      jump\t// in\n    tag_177:\n        /* \"#utility.yul\":8738:8740   */\n      0x20\n        /* \"#utility.yul\":8733:8736   */\n      dup3\n        /* \"#utility.yul\":8729:8741   */\n      add\n        /* \"#utility.yul\":8722:8741   */\n      swap1\n      pop\n        /* \"#utility.yul\":8381:8747   */\n      swap2\n      swap1\n      pop\n      jump\t// out\n        /* \"#utility.yul\":8753:9172   */\n    tag_37:\n        /* \"#utility.yul\":8919:8923   */\n      0x00\n        /* \"#utility.yul\":8957:8959   */\n      0x20\n        /* \"#utility.yul\":8946:8955   */\n      dup3\n        /* \"#utility.yul\":8942:8960   */\n      add\n        /* \"#utility.yul\":8934:8960   */\n      swap1\n      pop\n        /* \"#utility.yul\":9006:9015   */\n      dup2\n        /* \"#utility.yul\":9000:9004   */\n      dup2\n        /* \"#utility.yul\":8996:9016   */\n      sub\n        /* \"#utility.yul\":8992:8993   */\n      0x00\n        /* \"#utility.yul\":8981:8990   */\n      dup4\n        /* \"#utility.yul\":8977:8994   */\n      add\n        /* \"#utility.yul\":8970:9017   */\n      mstore\n        /* \"#utility.yul\":9034:9165   */\n      tag_179\n        /* \"#utility.yul\":9160:9164   */\n      dup2\n        /* \"#utility.yul\":9034:9165   */\n      tag_89\n      jump\t// in\n    tag_179:\n        /* \"#utility.yul\":9026:9165   */\n      swap1\n      pop\n        /* \"#utility.yul\":8753:9172   */\n      swap2\n      swap1\n      pop\n      jump\t// out\n        /* \"#utility.yul\":9178:9350   */\n    tag_90:\n        /* \"#utility.yul\":9318:9342   */\n      0x444944206e6f7420726567697374657265642079657400000000000000000000\n        /* \"#utility.yul\":9314:9315   */\n      0x00\n        /* \"#utility.yul\":9306:9312   */\n      dup3\n        /* \"#utility.yul\":9302:9316   */\n      add\n        /* \"#utility.yul\":9295:9343   */\n      mstore\n        /* \"#utility.yul\":9178:9350   */\n      pop\n      jump\t// out\n        /* \"#utility.yul\":9356:9722   */\n    tag_91:\n        /* \"#utility.yul\":9498:9501   */\n      0x00\n        /* \"#utility.yul\":9519:9586   */\n      tag_182\n        /* \"#utility.yul\":9583:9585   */\n      0x16\n        /* \"#utility.yul\":9578:9581   */\n      dup4\n        /* \"#utility.yul\":9519:9586   */\n      tag_79\n      jump\t// in\n    tag_182:\n        /* \"#utility.yul\":9512:9586   */\n      swap2\n      pop\n        /* \"#utility.yul\":9595:9688   */\n      tag_183\n        /* \"#utility.yul\":9684:9687   */\n      dup3\n        /* \"#utility.yul\":9595:9688   */\n      tag_90\n      jump\t// in\n    tag_183:\n        /* \"#utility.yul\":9713:9715   */\n      0x20\n        /* \"#utility.yul\":9708:9711   */\n      dup3\n        /* \"#utility.yul\":9704:9716   */\n      add\n        /* \"#utility.yul\":9697:9716   */\n      swap1\n      pop\n        /* \"#utility.yul\":9356:9722   */\n      swap2\n      swap1\n      pop\n      jump\t// out\n        /* \"#utility.yul\":9728:10147   */\n    tag_48:\n        /* \"#utility.yul\":9894:9898   */\n      0x00\n        /* \"#utility.yul\":9932:9934   */\n      0x20\n        /* \"#utility.yul\":9921:9930   */\n      dup3\n        /* \"#utility.yul\":9917:9935   */\n      add\n        /* \"#utility.yul\":9909:9935   */\n      swap1\n      pop\n        /* \"#utility.yul\":9981:9990   */\n      dup2\n        /* \"#utility.yul\":9975:9979   */\n      dup2\n        /* \"#utility.yul\":9971:9991   */\n      sub\n        /* \"#utility.yul\":9967:9968   */\n      0x00\n        /* \"#utility.yul\":9956:9965   */\n      dup4\n        /* \"#utility.yul\":9952:9969   */\n      add\n        /* \"#utility.yul\":9945:9992   */\n      mstore\n        /* \"#utility.yul\":10009:10140   */\n      tag_185\n        /* \"#utility.yul\":10135:10139   */\n      dup2\n        /* \"#utility.yul\":10009:10140   */\n      tag_91\n      jump\t// in\n    tag_185:\n        /* \"#utility.yul\":10001:10140   */\n      swap1\n      pop\n        /* \"#utility.yul\":9728:10147   */\n      swap2\n      swap1\n      pop\n      jump\t// out\n\n    auxdata: 0xa26469706673582212207b63a18057b29868bf422d0bcb440bd5bfa71794ac08333a86f44f551680567564736f6c634300081a0033\n}\n",
				"bytecode": {
					"linkReferences": {},
					"object": "6080604052348015600e575f80fd5b503360015f6101000a81548173ffffffffffffffffffffffffffffffffffffffff021916908373ffffffffffffffffffffffffffffffffffffffff160217905550610a468061005c5f395ff3fe608060405234801561000f575f80fd5b506004361061004a575f3560e01c8063391fbf0c1461004e5780638da5cb5b1461006a578063922525ae14610088578063e33dbd35146100a4575b5f80fd5b610068600480360381019061006391906106d7565b6100d4565b005b6100726102eb565b60405161007f9190610770565b60405180910390f35b6100a2600480360381019061009d91906106d7565b610310565b005b6100be60048036038101906100b99190610789565b6104e6565b6040516100cb91906107df565b60405180910390f35b60015f9054906101000a900473ffffffffffffffffffffffffffffffffffffffff1673ffffffffffffffffffffffffffffffffffffffff163373ffffffffffffffffffffffffffffffffffffffff1614610163576040517f08c379a000000000000000000000000000000000000000000000000000000000815260040161015a90610852565b60405180910390fd5b5f8160ff161480610177575060018160ff16145b6101b6576040517f08c379a00000000000000000000000000000000000000000000000000000000081526004016101ad906108ba565b60405180910390fd5b5f826040516101c5919061092a565b90815260200160405180910390205f015f9054906101000a900460ff1615610222576040517f08c379a00000000000000000000000000000000000000000000000000000000081526004016102199061098a565b60405180910390fd5b60405180604001604052806001151581526020018260ff168152505f8360405161024c919061092a565b90815260200160405180910390205f820151815f015f6101000a81548160ff0219169083151502179055506020820151815f0160016101000a81548160ff021916908360ff160217905550905050816040516102a8919061092a565b60405180910390207fcb0d880eb5e0b16307591ca2499d8a90f2aca862fa4e56a0621de1585aa2fbfd826040516102df91906107df565b60405180910390a25050565b60015f9054906101000a900473ffffffffffffffffffffffffffffffffffffffff1681565b60015f9054906101000a900473ffffffffffffffffffffffffffffffffffffffff1673ffffffffffffffffffffffffffffffffffffffff163373ffffffffffffffffffffffffffffffffffffffff161461039f576040517f08c379a000000000000000000000000000000000000000000000000000000000815260040161039690610852565b60405180910390fd5b5f826040516103ae919061092a565b90815260200160405180910390205f015f9054906101000a900460ff1661040a576040517f08c379a0000000000000000000000000000000000000000000000000000000008152600401610401906109f2565b60405180910390fd5b5f8160ff16148061041e575060018160ff16145b61045d576040517f08c379a0000000000000000000000000000000000000000000000000000000008152600401610454906108ba565b60405180910390fd5b805f8360405161046d919061092a565b90815260200160405180910390205f0160016101000a81548160ff021916908360ff160217905550816040516104a3919061092a565b60405180910390207fcb0d880eb5e0b16307591ca2499d8a90f2aca862fa4e56a0621de1585aa2fbfd826040516104da91906107df565b60405180910390a25050565b5f80826040516104f6919061092a565b90815260200160405180910390205f015f9054906101000a900460ff1661051f575f905061054f565b5f8260405161052e919061092a565b90815260200160405180910390205f0160019054906101000a900460ff1690505b919050565b5f604051905090565b5f80fd5b5f80fd5b5f80fd5b5f80fd5b5f601f19601f8301169050919050565b7f4e487b71000000000000000000000000000000000000000000000000000000005f52604160045260245ffd5b6105b38261056d565b810181811067ffffffffffffffff821117156105d2576105d161057d565b5b80604052505050565b5f6105e4610554565b90506105f082826105aa565b919050565b5f67ffffffffffffffff82111561060f5761060e61057d565b5b6106188261056d565b9050602081019050919050565b828183375f83830152505050565b5f610645610640846105f5565b6105db565b90508281526020810184848401111561066157610660610569565b5b61066c848285610625565b509392505050565b5f82601f83011261068857610687610565565b5b8135610698848260208601610633565b91505092915050565b5f60ff82169050919050565b6106b6816106a1565b81146106c0575f80fd5b50565b5f813590506106d1816106ad565b92915050565b5f80604083850312156106ed576106ec61055d565b5b5f83013567ffffffffffffffff81111561070a57610709610561565b5b61071685828601610674565b9250506020610727858286016106c3565b9150509250929050565b5f73ffffffffffffffffffffffffffffffffffffffff82169050919050565b5f61075a82610731565b9050919050565b61076a81610750565b82525050565b5f6020820190506107835f830184610761565b92915050565b5f6020828403121561079e5761079d61055d565b5b5f82013567ffffffffffffffff8111156107bb576107ba610561565b5b6107c784828501610674565b91505092915050565b6107d9816106a1565b82525050565b5f6020820190506107f25f8301846107d0565b92915050565b5f82825260208201905092915050565b7f4e6f7420617574686f72697a65640000000000000000000000000000000000005f82015250565b5f61083c600e836107f8565b915061084782610808565b602082019050919050565b5f6020820190508181035f83015261086981610830565b9050919050565b7f5472757374206d7573742062652030206f7220310000000000000000000000005f82015250565b5f6108a46014836107f8565b91506108af82610870565b602082019050919050565b5f6020820190508181035f8301526108d181610898565b9050919050565b5f81519050919050565b5f81905092915050565b8281835e5f83830152505050565b5f610904826108d8565b61090e81856108e2565b935061091e8185602086016108ec565b80840191505092915050565b5f61093582846108fa565b915081905092915050565b7f44494420616c72656164792072656769737465726564000000000000000000005f82015250565b5f6109746016836107f8565b915061097f82610940565b602082019050919050565b5f6020820190508181035f8301526109a181610968565b9050919050565b7f444944206e6f74207265676973746572656420796574000000000000000000005f82015250565b5f6109dc6016836107f8565b91506109e7826109a8565b602082019050919050565b5f6020820190508181035f830152610a09816109d0565b905091905056fea26469706673582212207b63a18057b29868bf422d0bcb440bd5bfa71794ac08333a86f44f551680567564736f6c634300081a0033",
					"opcodes": "PUSH1 0x80 PUSH1 0x40 MSTORE CALLVALUE DUP1 ISZERO PUSH1 0xE JUMPI PUSH0 DUP1 REVERT JUMPDEST POP CALLER PUSH1 0x1 PUSH0 PUSH2 0x100 EXP DUP2 SLOAD DUP2 PUSH20 0xFFFFFFFFFFFFFFFFFFFFFFFFFFFFFFFFFFFFFFFF MUL NOT AND SWAP1 DUP4 PUSH20 0xFFFFFFFFFFFFFFFFFFFFFFFFFFFFFFFFFFFFFFFF AND MUL OR SWAP1 SSTORE POP PUSH2 0xA46 DUP1 PUSH2 0x5C PUSH0 CODECOPY PUSH0 RETURN INVALID PUSH1 0x80 PUSH1 0x40 MSTORE CALLVALUE DUP1 ISZERO PUSH2 0xF JUMPI PUSH0 DUP1 REVERT JUMPDEST POP PUSH1 0x4 CALLDATASIZE LT PUSH2 0x4A JUMPI PUSH0 CALLDATALOAD PUSH1 0xE0 SHR DUP1 PUSH4 0x391FBF0C EQ PUSH2 0x4E JUMPI DUP1 PUSH4 0x8DA5CB5B EQ PUSH2 0x6A JUMPI DUP1 PUSH4 0x922525AE EQ PUSH2 0x88 JUMPI DUP1 PUSH4 0xE33DBD35 EQ PUSH2 0xA4 JUMPI JUMPDEST PUSH0 DUP1 REVERT JUMPDEST PUSH2 0x68 PUSH1 0x4 DUP1 CALLDATASIZE SUB DUP2 ADD SWAP1 PUSH2 0x63 SWAP2 SWAP1 PUSH2 0x6D7 JUMP JUMPDEST PUSH2 0xD4 JUMP JUMPDEST STOP JUMPDEST PUSH2 0x72 PUSH2 0x2EB JUMP JUMPDEST PUSH1 0x40 MLOAD PUSH2 0x7F SWAP2 SWAP1 PUSH2 0x770 JUMP JUMPDEST PUSH1 0x40 MLOAD DUP1 SWAP2 SUB SWAP1 RETURN JUMPDEST PUSH2 0xA2 PUSH1 0x4 DUP1 CALLDATASIZE SUB DUP2 ADD SWAP1 PUSH2 0x9D SWAP2 SWAP1 PUSH2 0x6D7 JUMP JUMPDEST PUSH2 0x310 JUMP JUMPDEST STOP JUMPDEST PUSH2 0xBE PUSH1 0x4 DUP1 CALLDATASIZE SUB DUP2 ADD SWAP1 PUSH2 0xB9 SWAP2 SWAP1 PUSH2 0x789 JUMP JUMPDEST PUSH2 0x4E6 JUMP JUMPDEST PUSH1 0x40 MLOAD PUSH2 0xCB SWAP2 SWAP1 PUSH2 0x7DF JUMP JUMPDEST PUSH1 0x40 MLOAD DUP1 SWAP2 SUB SWAP1 RETURN JUMPDEST PUSH1 0x1 PUSH0 SWAP1 SLOAD SWAP1 PUSH2 0x100 EXP SWAP1 DIV PUSH20 0xFFFFFFFFFFFFFFFFFFFFFFFFFFFFFFFFFFFFFFFF AND PUSH20 0xFFFFFFFFFFFFFFFFFFFFFFFFFFFFFFFFFFFFFFFF AND CALLER PUSH20 0xFFFFFFFFFFFFFFFFFFFFFFFFFFFFFFFFFFFFFFFF AND EQ PUSH2 0x163 JUMPI PUSH1 0x40 MLOAD PUSH32 0x8C379A000000000000000000000000000000000000000000000000000000000 DUP2 MSTORE PUSH1 0x4 ADD PUSH2 0x15A SWAP1 PUSH2 0x852 JUMP JUMPDEST PUSH1 0x40 MLOAD DUP1 SWAP2 SUB SWAP1 REVERT JUMPDEST PUSH0 DUP2 PUSH1 0xFF AND EQ DUP1 PUSH2 0x177 JUMPI POP PUSH1 0x1 DUP2 PUSH1 0xFF AND EQ JUMPDEST PUSH2 0x1B6 JUMPI PUSH1 0x40 MLOAD PUSH32 0x8C379A000000000000000000000000000000000000000000000000000000000 DUP2 MSTORE PUSH1 0x4 ADD PUSH2 0x1AD SWAP1 PUSH2 0x8BA JUMP JUMPDEST PUSH1 0x40 MLOAD DUP1 SWAP2 SUB SWAP1 REVERT JUMPDEST PUSH0 DUP3 PUSH1 0x40 MLOAD PUSH2 0x1C5 SWAP2 SWAP1 PUSH2 0x92A JUMP JUMPDEST SWAP1 DUP2 MSTORE PUSH1 0x20 ADD PUSH1 0x40 MLOAD DUP1 SWAP2 SUB SWAP1 KECCAK256 PUSH0 ADD PUSH0 SWAP1 SLOAD SWAP1 PUSH2 0x100 EXP SWAP1 DIV PUSH1 0xFF AND ISZERO PUSH2 0x222 JUMPI PUSH1 0x40 MLOAD PUSH32 0x8C379A000000000000000000000000000000000000000000000000000000000 DUP2 MSTORE PUSH1 0x4 ADD PUSH2 0x219 SWAP1 PUSH2 0x98A JUMP JUMPDEST PUSH1 0x40 MLOAD DUP1 SWAP2 SUB SWAP1 REVERT JUMPDEST PUSH1 0x40 MLOAD DUP1 PUSH1 0x40 ADD PUSH1 0x40 MSTORE DUP1 PUSH1 0x1 ISZERO ISZERO DUP2 MSTORE PUSH1 0x20 ADD DUP3 PUSH1 0xFF AND DUP2 MSTORE POP PUSH0 DUP4 PUSH1 0x40 MLOAD PUSH2 0x24C SWAP2 SWAP1 PUSH2 0x92A JUMP JUMPDEST SWAP1 DUP2 MSTORE PUSH1 0x20 ADD PUSH1 0x40 MLOAD DUP1 SWAP2 SUB SWAP1 KECCAK256 PUSH0 DUP3 ADD MLOAD DUP2 PUSH0 ADD PUSH0 PUSH2 0x100 EXP DUP2 SLOAD DUP2 PUSH1 0xFF MUL NOT AND SWAP1 DUP4 ISZERO ISZERO MUL OR SWAP1 SSTORE POP PUSH1 0x20 DUP3 ADD MLOAD DUP2 PUSH0 ADD PUSH1 0x1 PUSH2 0x100 EXP DUP2 SLOAD DUP2 PUSH1 0xFF MUL NOT AND SWAP1 DUP4 PUSH1 0xFF AND MUL OR SWAP1 SSTORE POP SWAP1 POP POP DUP2 PUSH1 0x40 MLOAD PUSH2 0x2A8 SWAP2 SWAP1 PUSH2 0x92A JUMP JUMPDEST PUSH1 0x40 MLOAD DUP1 SWAP2 SUB SWAP1 KECCAK256 PUSH32 0xCB0D880EB5E0B16307591CA2499D8A90F2ACA862FA4E56A0621DE1585AA2FBFD DUP3 PUSH1 0x40 MLOAD PUSH2 0x2DF SWAP2 SWAP1 PUSH2 0x7DF JUMP JUMPDEST PUSH1 0x40 MLOAD DUP1 SWAP2 SUB SWAP1 LOG2 POP POP JUMP JUMPDEST PUSH1 0x1 PUSH0 SWAP1 SLOAD SWAP1 PUSH2 0x100 EXP SWAP1 DIV PUSH20 0xFFFFFFFFFFFFFFFFFFFFFFFFFFFFFFFFFFFFFFFF AND DUP2 JUMP JUMPDEST PUSH1 0x1 PUSH0 SWAP1 SLOAD SWAP1 PUSH2 0x100 EXP SWAP1 DIV PUSH20 0xFFFFFFFFFFFFFFFFFFFFFFFFFFFFFFFFFFFFFFFF AND PUSH20 0xFFFFFFFFFFFFFFFFFFFFFFFFFFFFFFFFFFFFFFFF AND CALLER PUSH20 0xFFFFFFFFFFFFFFFFFFFFFFFFFFFFFFFFFFFFFFFF AND EQ PUSH2 0x39F JUMPI PUSH1 0x40 MLOAD PUSH32 0x8C379A000000000000000000000000000000000000000000000000000000000 DUP2 MSTORE PUSH1 0x4 ADD PUSH2 0x396 SWAP1 PUSH2 0x852 JUMP JUMPDEST PUSH1 0x40 MLOAD DUP1 SWAP2 SUB SWAP1 REVERT JUMPDEST PUSH0 DUP3 PUSH1 0x40 MLOAD PUSH2 0x3AE SWAP2 SWAP1 PUSH2 0x92A JUMP JUMPDEST SWAP1 DUP2 MSTORE PUSH1 0x20 ADD PUSH1 0x40 MLOAD DUP1 SWAP2 SUB SWAP1 KECCAK256 PUSH0 ADD PUSH0 SWAP1 SLOAD SWAP1 PUSH2 0x100 EXP SWAP1 DIV PUSH1 0xFF AND PUSH2 0x40A JUMPI PUSH1 0x40 MLOAD PUSH32 0x8C379A000000000000000000000000000000000000000000000000000000000 DUP2 MSTORE PUSH1 0x4 ADD PUSH2 0x401 SWAP1 PUSH2 0x9F2 JUMP JUMPDEST PUSH1 0x40 MLOAD DUP1 SWAP2 SUB SWAP1 REVERT JUMPDEST PUSH0 DUP2 PUSH1 0xFF AND EQ DUP1 PUSH2 0x41E JUMPI POP PUSH1 0x1 DUP2 PUSH1 0xFF AND EQ JUMPDEST PUSH2 0x45D JUMPI PUSH1 0x40 MLOAD PUSH32 0x8C379A000000000000000000000000000000000000000000000000000000000 DUP2 MSTORE PUSH1 0x4 ADD PUSH2 0x454 SWAP1 PUSH2 0x8BA JUMP JUMPDEST PUSH1 0x40 MLOAD DUP1 SWAP2 SUB SWAP1 REVERT JUMPDEST DUP1 PUSH0 DUP4 PUSH1 0x40 MLOAD PUSH2 0x46D SWAP2 SWAP1 PUSH2 0x92A JUMP JUMPDEST SWAP1 DUP2 MSTORE PUSH1 0x20 ADD PUSH1 0x40 MLOAD DUP1 SWAP2 SUB SWAP1 KECCAK256 PUSH0 ADD PUSH1 0x1 PUSH2 0x100 EXP DUP2 SLOAD DUP2 PUSH1 0xFF MUL NOT AND SWAP1 DUP4 PUSH1 0xFF AND MUL OR SWAP1 SSTORE POP DUP2 PUSH1 0x40 MLOAD PUSH2 0x4A3 SWAP2 SWAP1 PUSH2 0x92A JUMP JUMPDEST PUSH1 0x40 MLOAD DUP1 SWAP2 SUB SWAP1 KECCAK256 PUSH32 0xCB0D880EB5E0B16307591CA2499D8A90F2ACA862FA4E56A0621DE1585AA2FBFD DUP3 PUSH1 0x40 MLOAD PUSH2 0x4DA SWAP2 SWAP1 PUSH2 0x7DF JUMP JUMPDEST PUSH1 0x40 MLOAD DUP1 SWAP2 SUB SWAP1 LOG2 POP POP JUMP JUMPDEST PUSH0 DUP1 DUP3 PUSH1 0x40 MLOAD PUSH2 0x4F6 SWAP2 SWAP1 PUSH2 0x92A JUMP JUMPDEST SWAP1 DUP2 MSTORE PUSH1 0x20 ADD PUSH1 0x40 MLOAD DUP1 SWAP2 SUB SWAP1 KECCAK256 PUSH0 ADD PUSH0 SWAP1 SLOAD SWAP1 PUSH2 0x100 EXP SWAP1 DIV PUSH1 0xFF AND PUSH2 0x51F JUMPI PUSH0 SWAP1 POP PUSH2 0x54F JUMP JUMPDEST PUSH0 DUP3 PUSH1 0x40 MLOAD PUSH2 0x52E SWAP2 SWAP1 PUSH2 0x92A JUMP JUMPDEST SWAP1 DUP2 MSTORE PUSH1 0x20 ADD PUSH1 0x40 MLOAD DUP1 SWAP2 SUB SWAP1 KECCAK256 PUSH0 ADD PUSH1 0x1 SWAP1 SLOAD SWAP1 PUSH2 0x100 EXP SWAP1 DIV PUSH1 0xFF AND SWAP1 POP JUMPDEST SWAP2 SWAP1 POP JUMP JUMPDEST PUSH0 PUSH1 0x40 MLOAD SWAP1 POP SWAP1 JUMP JUMPDEST PUSH0 DUP1 REVERT JUMPDEST PUSH0 DUP1 REVERT JUMPDEST PUSH0 DUP1 REVERT JUMPDEST PUSH0 DUP1 REVERT JUMPDEST PUSH0 PUSH1 0x1F NOT PUSH1 0x1F DUP4 ADD AND SWAP1 POP SWAP2 SWAP1 POP JUMP JUMPDEST PUSH32 0x4E487B7100000000000000000000000000000000000000000000000000000000 PUSH0 MSTORE PUSH1 0x41 PUSH1 0x4 MSTORE PUSH1 0x24 PUSH0 REVERT JUMPDEST PUSH2 0x5B3 DUP3 PUSH2 0x56D JUMP JUMPDEST DUP2 ADD DUP2 DUP2 LT PUSH8 0xFFFFFFFFFFFFFFFF DUP3 GT OR ISZERO PUSH2 0x5D2 JUMPI PUSH2 0x5D1 PUSH2 0x57D JUMP JUMPDEST JUMPDEST DUP1 PUSH1 0x40 MSTORE POP POP POP JUMP JUMPDEST PUSH0 PUSH2 0x5E4 PUSH2 0x554 JUMP JUMPDEST SWAP1 POP PUSH2 0x5F0 DUP3 DUP3 PUSH2 0x5AA JUMP JUMPDEST SWAP2 SWAP1 POP JUMP JUMPDEST PUSH0 PUSH8 0xFFFFFFFFFFFFFFFF DUP3 GT ISZERO PUSH2 0x60F JUMPI PUSH2 0x60E PUSH2 0x57D JUMP JUMPDEST JUMPDEST PUSH2 0x618 DUP3 PUSH2 0x56D JUMP JUMPDEST SWAP1 POP PUSH1 0x20 DUP2 ADD SWAP1 POP SWAP2 SWAP1 POP JUMP JUMPDEST DUP3 DUP2 DUP4 CALLDATACOPY PUSH0 DUP4 DUP4 ADD MSTORE POP POP POP JUMP JUMPDEST PUSH0 PUSH2 0x645 PUSH2 0x640 DUP5 PUSH2 0x5F5 JUMP JUMPDEST PUSH2 0x5DB JUMP JUMPDEST SWAP1 POP DUP3 DUP2 MSTORE PUSH1 0x20 DUP2 ADD DUP5 DUP5 DUP5 ADD GT ISZERO PUSH2 0x661 JUMPI PUSH2 0x660 PUSH2 0x569 JUMP JUMPDEST JUMPDEST PUSH2 0x66C DUP5 DUP3 DUP6 PUSH2 0x625 JUMP JUMPDEST POP SWAP4 SWAP3 POP POP POP JUMP JUMPDEST PUSH0 DUP3 PUSH1 0x1F DUP4 ADD SLT PUSH2 0x688 JUMPI PUSH2 0x687 PUSH2 0x565 JUMP JUMPDEST JUMPDEST DUP2 CALLDATALOAD PUSH2 0x698 DUP5 DUP3 PUSH1 0x20 DUP7 ADD PUSH2 0x633 JUMP JUMPDEST SWAP2 POP POP SWAP3 SWAP2 POP POP JUMP JUMPDEST PUSH0 PUSH1 0xFF DUP3 AND SWAP1 POP SWAP2 SWAP1 POP JUMP JUMPDEST PUSH2 0x6B6 DUP2 PUSH2 0x6A1 JUMP JUMPDEST DUP2 EQ PUSH2 0x6C0 JUMPI PUSH0 DUP1 REVERT JUMPDEST POP JUMP JUMPDEST PUSH0 DUP2 CALLDATALOAD SWAP1 POP PUSH2 0x6D1 DUP2 PUSH2 0x6AD JUMP JUMPDEST SWAP3 SWAP2 POP POP JUMP JUMPDEST PUSH0 DUP1 PUSH1 0x40 DUP4 DUP6 SUB SLT ISZERO PUSH2 0x6ED JUMPI PUSH2 0x6EC PUSH2 0x55D JUMP JUMPDEST JUMPDEST PUSH0 DUP4 ADD CALLDATALOAD PUSH8 0xFFFFFFFFFFFFFFFF DUP2 GT ISZERO PUSH2 0x70A JUMPI PUSH2 0x709 PUSH2 0x561 JUMP JUMPDEST JUMPDEST PUSH2 0x716 DUP6 DUP3 DUP7 ADD PUSH2 0x674 JUMP JUMPDEST SWAP3 POP POP PUSH1 0x20 PUSH2 0x727 DUP6 DUP3 DUP7 ADD PUSH2 0x6C3 JUMP JUMPDEST SWAP2 POP POP SWAP3 POP SWAP3 SWAP1 POP JUMP JUMPDEST PUSH0 PUSH20 0xFFFFFFFFFFFFFFFFFFFFFFFFFFFFFFFFFFFFFFFF DUP3 AND SWAP1 POP SWAP2 SWAP1 POP JUMP JUMPDEST PUSH0 PUSH2 0x75A DUP3 PUSH2 0x731 JUMP JUMPDEST SWAP1 POP SWAP2 SWAP1 POP JUMP JUMPDEST PUSH2 0x76A DUP2 PUSH2 0x750 JUMP JUMPDEST DUP3 MSTORE POP POP JUMP JUMPDEST PUSH0 PUSH1 0x20 DUP3 ADD SWAP1 POP PUSH2 0x783 PUSH0 DUP4 ADD DUP5 PUSH2 0x761 JUMP JUMPDEST SWAP3 SWAP2 POP POP JUMP JUMPDEST PUSH0 PUSH1 0x20 DUP3 DUP5 SUB SLT ISZERO PUSH2 0x79E JUMPI PUSH2 0x79D PUSH2 0x55D JUMP JUMPDEST JUMPDEST PUSH0 DUP3 ADD CALLDATALOAD PUSH8 0xFFFFFFFFFFFFFFFF DUP2 GT ISZERO PUSH2 0x7BB JUMPI PUSH2 0x7BA PUSH2 0x561 JUMP JUMPDEST JUMPDEST PUSH2 0x7C7 DUP5 DUP3 DUP6 ADD PUSH2 0x674 JUMP JUMPDEST SWAP2 POP POP SWAP3 SWAP2 POP POP JUMP JUMPDEST PUSH2 0x7D9 DUP2 PUSH2 0x6A1 JUMP JUMPDEST DUP3 MSTORE POP POP JUMP JUMPDEST PUSH0 PUSH1 0x20 DUP3 ADD SWAP1 POP PUSH2 0x7F2 PUSH0 DUP4 ADD DUP5 PUSH2 0x7D0 JUMP JUMPDEST SWAP3 SWAP2 POP POP JUMP JUMPDEST PUSH0 DUP3 DUP3 MSTORE PUSH1 0x20 DUP3 ADD SWAP1 POP SWAP3 SWAP2 POP POP JUMP JUMPDEST PUSH32 0x4E6F7420617574686F72697A6564000000000000000000000000000000000000 PUSH0 DUP3 ADD MSTORE POP JUMP JUMPDEST PUSH0 PUSH2 0x83C PUSH1 0xE DUP4 PUSH2 0x7F8 JUMP JUMPDEST SWAP2 POP PUSH2 0x847 DUP3 PUSH2 0x808 JUMP JUMPDEST PUSH1 0x20 DUP3 ADD SWAP1 POP SWAP2 SWAP1 POP JUMP JUMPDEST PUSH0 PUSH1 0x20 DUP3 ADD SWAP1 POP DUP2 DUP2 SUB PUSH0 DUP4 ADD MSTORE PUSH2 0x869 DUP2 PUSH2 0x830 JUMP JUMPDEST SWAP1 POP SWAP2 SWAP1 POP JUMP JUMPDEST PUSH32 0x5472757374206D7573742062652030206F722031000000000000000000000000 PUSH0 DUP3 ADD MSTORE POP JUMP JUMPDEST PUSH0 PUSH2 0x8A4 PUSH1 0x14 DUP4 PUSH2 0x7F8 JUMP JUMPDEST SWAP2 POP PUSH2 0x8AF DUP3 PUSH2 0x870 JUMP JUMPDEST PUSH1 0x20 DUP3 ADD SWAP1 POP SWAP2 SWAP1 POP JUMP JUMPDEST PUSH0 PUSH1 0x20 DUP3 ADD SWAP1 POP DUP2 DUP2 SUB PUSH0 DUP4 ADD MSTORE PUSH2 0x8D1 DUP2 PUSH2 0x898 JUMP JUMPDEST SWAP1 POP SWAP2 SWAP1 POP JUMP JUMPDEST PUSH0 DUP2 MLOAD SWAP1 POP SWAP2 SWAP1 POP JUMP JUMPDEST PUSH0 DUP2 SWAP1 POP SWAP3 SWAP2 POP POP JUMP JUMPDEST DUP3 DUP2 DUP4 MCOPY PUSH0 DUP4 DUP4 ADD MSTORE POP POP POP JUMP JUMPDEST PUSH0 PUSH2 0x904 DUP3 PUSH2 0x8D8 JUMP JUMPDEST PUSH2 0x90E DUP2 DUP6 PUSH2 0x8E2 JUMP JUMPDEST SWAP4 POP PUSH2 0x91E DUP2 DUP6 PUSH1 0x20 DUP7 ADD PUSH2 0x8EC JUMP JUMPDEST DUP1 DUP5 ADD SWAP2 POP POP SWAP3 SWAP2 POP POP JUMP JUMPDEST PUSH0 PUSH2 0x935 DUP3 DUP5 PUSH2 0x8FA JUMP JUMPDEST SWAP2 POP DUP2 SWAP1 POP SWAP3 SWAP2 POP POP JUMP JUMPDEST PUSH32 0x44494420616C7265616479207265676973746572656400000000000000000000 PUSH0 DUP3 ADD MSTORE POP JUMP JUMPDEST PUSH0 PUSH2 0x974 PUSH1 0x16 DUP4 PUSH2 0x7F8 JUMP JUMPDEST SWAP2 POP PUSH2 0x97F DUP3 PUSH2 0x940 JUMP JUMPDEST PUSH1 0x20 DUP3 ADD SWAP1 POP SWAP2 SWAP1 POP JUMP JUMPDEST PUSH0 PUSH1 0x20 DUP3 ADD SWAP1 POP DUP2 DUP2 SUB PUSH0 DUP4 ADD MSTORE PUSH2 0x9A1 DUP2 PUSH2 0x968 JUMP JUMPDEST SWAP1 POP SWAP2 SWAP1 POP JUMP JUMPDEST PUSH32 0x444944206E6F7420726567697374657265642079657400000000000000000000 PUSH0 DUP3 ADD MSTORE POP JUMP JUMPDEST PUSH0 PUSH2 0x9DC PUSH1 0x16 DUP4 PUSH2 0x7F8 JUMP JUMPDEST SWAP2 POP PUSH2 0x9E7 DUP3 PUSH2 0x9A8 JUMP JUMPDEST PUSH1 0x20 DUP3 ADD SWAP1 POP SWAP2 SWAP1 POP JUMP JUMPDEST PUSH0 PUSH1 0x20 DUP3 ADD SWAP1 POP DUP2 DUP2 SUB PUSH0 DUP4 ADD MSTORE PUSH2 0xA09 DUP2 PUSH2 0x9D0 JUMP JUMPDEST SWAP1 POP SWAP2 SWAP1 POP JUMP INVALID LOG2 PUSH5 0x6970667358 0x22 SLT KECCAK256 PUSH28 0x63A18057B29868BF422D0BCB440BD5BFA71794AC08333A86F44F5516 DUP1 JUMP PUSH22 0x64736F6C634300081A00330000000000000000000000 "
				},
				"gasEstimates": {
					"creation": {
						"codeDepositCost": "526000",
						"executionCost": "24825",
						"totalCost": "550825"
					},
					"external": {
						"checkTrust(string)": "infinite",
						"owner()": "2508",
						"registerDID(string,uint8)": "infinite",
						"setTrustValue(string,uint8)": "infinite"
					}
				},
				"methodIdentifiers": {
					"checkTrust(string)": "e33dbd35",
					"owner()": "8da5cb5b",
					"registerDID(string,uint8)": "391fbf0c",
					"setTrustValue(string,uint8)": "922525ae"
				}
			},
			"storageLayout": {
				"storage": [
					{
						"astId": 11,
						"contract": "contracts/SimpleDIDTrust.sol:SimpleDIDTrust",
						"label": "didRegistry",
						"offset": 0,
						"slot": "0",
						"type": "t_mapping(t_string_memory_ptr,t_struct(DIDInfo)6_storage)"
					},
					{
						"astId": 13,
						"contract": "contracts/SimpleDIDTrust.sol:SimpleDIDTrust",
						"label": "owner",
						"offset": 0,
						"slot": "1",
						"type": "t_address"
					}
				],
				"types": {
					"t_address": {
						"encoding": "inplace",
						"label": "address",
						"numberOfBytes": "20"
					},
					"t_bool": {
						"encoding": "inplace",
						"label": "bool",
						"numberOfBytes": "1"
					},
					"t_mapping(t_string_memory_ptr,t_struct(DIDInfo)6_storage)": {
						"encoding": "mapping",
						"key": "t_string_memory_ptr",
						"label": "mapping(string => struct SimpleDIDTrust.DIDInfo)",
						"numberOfBytes": "32",
						"value": "t_struct(DIDInfo)6_storage"
					},
					"t_string_memory_ptr": {
						"encoding": "bytes",
						"label": "string",
						"numberOfBytes": "32"
					},
					"t_struct(DIDInfo)6_storage": {
						"encoding": "inplace",
						"label": "struct SimpleDIDTrust.DIDInfo",
						"members": [
							{
								"astId": 3,
								"contract": "contracts/SimpleDIDTrust.sol:SimpleDIDTrust",
								"label": "registered",
								"offset": 0,
								"slot": "0",
								"type": "t_bool"
							},
							{
								"astId": 5,
								"contract": "contracts/SimpleDIDTrust.sol:SimpleDIDTrust",
								"label": "trustLevel",
								"offset": 1,
								"slot": "0",
								"type": "t_uint8"
							}
						],
						"numberOfBytes": "32"
					},
					"t_uint8": {
						"encoding": "inplace",
						"label": "uint8",
						"numberOfBytes": "1"
					}
				}
			},
			"userdoc": {
				"kind": "user",
				"methods": {},
				"version": 1
			}
		}
	}
}